:100000000C9462000C945F070C9438070C948A00DF
:100010000C948A000C948A000C948A000C948A0038
:100020000C948A000C948A000C948A000C948A0028
:100030000C948A000C948A000C948A000C948A0018
:100040000C9453110C948A000C94F5080C94CF086E
:100050000C948A000C948A000C948A000C948A00F8
:100060000C9427090C948A0000000000240027004B
:100070002A0000000000250028002B0000000000DE
:1000800023002600290000000008000201000003F0
:10009000040700000000000000000404040404043D
:1000A0000404020202020202030303030303010227
:1000B00004081020408001020408102001020408F6
:1000C00010208C1611241FBECFEFD8E0DEBFCDBFAD
:1000D00023E0A2EEB1E001C01D92A73CB207E1F718
:1000E00011E0A0E0B1E0ECEDFFE302C005900D925D
:1000F000A23EB107D9F710E0C2E6D0E004C02197D4
:10010000FE010E94EA1DC136D107C9F70E941413EF
:100110000C94EC1F0C9400000895CF92DF92EF92A4
:10012000FF920F931F93CF93DF936C017A018B01A2
:10013000C0E0D0E0CE15DF0581F0D8016D918D01D2
:10014000D601ED91FC910190F081E02DC601099559
:10015000892B11F02196EECF7E01C701DF91CF915F
:100160001F910F91FF90EF90DF90CF900895FC01C9
:10017000538D448D252F30E0842F90E0821B930B0C
:10018000541710F0CF96089501970895FC01918DB2
:10019000828D981761F0828DDF01A80FB11D5D96E9
:1001A0008C91928D9F5F9F73928F90E008958FEF57
:1001B0009FEF0895FC01918D828D981731F0828D0B
:1001C000E80FF11D858D90E008958FEF9FEF089562
:1001D000FC01918D228D892F90E0805C9F4F821BC6
:1001E00091098F739927089580EB92E00E94E800AF
:1001F00021E0892B09F420E0822F0895FC01848DF1
:10020000DF01A80FB11DA35ABF4F2C91848D90E040
:1002100001968F739927848FA689B7892C93A0891B
:10022000B1898C91837080648C93938D848D9813A5
:1002300006C00288F389E02D80818F7D8083089538
:10024000EF92FF920F931F93CF93DF93EC0181E026
:10025000888F9B8D8C8D981305C0E889F9898081E2
:1002600085FD26C0F62E0B8D10E00F5F1F4F0F731C
:100270001127E02E8C8DE8120CC00FB607FCFACFC8
:10028000E889F989808185FFF5CFCE010E94FE00C3
:10029000F1CF8B8DFE01E80FF11DE35AFF4FF08285
:1002A0009FB7F8940B8FEA89FB89808180620AC02E
:1002B0009FB7F894EE89FF896083E889F989808186
:1002C0008370806480839FBF81E090E0DF91CF9155
:1002D0001F910F91FF90EF900895CF93DF93EC0162
:1002E000888D8823C9F0EA89FB89808185FD05C056
:1002F000A889B9898C9186FD0FC00FB607FCF5CF90
:10030000808185FFF2CFA889B9898C9185FFEDCFD7
:10031000CE010E94FE00E7CFDF91CF91089580E0EB
:1003200090E0892B29F00E94F40081110C940000C8
:10033000089585ED8093BC008091BC0084FDFCCFC6
:1003400010928D02089540910602262F30E0240F6E
:10035000311D21323105DCF420918D022430C9F4A5
:10036000FC0180E090E0861758F43091060221915C
:10037000DC01AA51BE4FA30FB11D2C930196F3CF00
:1003800080910602680F6093060280E0089581E084
:10039000089582E00895089508950895E0918F02E8
:1003A00080918E02E81730F4F0E0E057FD4F808135
:1003B00090E008958FEF9FEF089590918F028091C4
:1003C0008E02981750F4E92FF0E0E057FD4F20819E
:1003D00030E09F5F90938F0202C02FEF3FEFC90183
:1003E000089580918E0290E020918F02821B9109E6
:1003F0000895CF92DF92EF92FF920F931F93CF93C6
:10040000DF937C01CB018A0120912D02222389F008
:10041000EB016B01C40ED51ECC15DD0569F06991A9
:10042000D701ED91FC910190F081E02DC701099574
:10043000F3CF642F0E94A301C801DF91CF911F91D8
:100440000F91FF90EF90DF90CF900895CF93DF93BF
:100450001F92CDB7DEB7698320912D022223D1F000
:1004600020915002203240F021E030E0FC01338343
:10047000228380E090E015C080912E02E82FF0E00A
:10048000E15DFD4F998190838F5F80932E02809371
:10049000500205C061E0CE0101960E94A30181E0F7
:1004A00090E00F90DF91CF91089521E001C0220FDD
:1004B0006A95EAF7DC011C962C931C971A965C93BC
:1004C0004E931997ED91FC910484F585E02D60E041
:1004D0000994DC01ED91FC910684F785E02D41E063
:1004E000099581E090E0089508950895089580E0C9
:1004F00090E008950F931F93CF93DF93062F0F7013
:10050000423019F440E0602F0EC0142FEC0170E06F
:1005100084E0759567958A95E1F7CE010E94510DAB
:10052000412F602FCE01DF91CF911F910F910C943D
:10053000510DFC0184858823A9F021853285211580
:10054000310519F4611106C007C02130310521F4CD
:10055000611102C0858701C015866585CF010E96A1
:100560000C942E0D08952F923F924F925F926F92AE
:100570007F928F929F92AF92BF92CF92DF92EF9233
:10058000FF920F931F93CF93DF93CDB7DEB76B9797
:100590000FB6F894DEBF0FBECDBF8AEF0E94D90D13
:1005A000009187031091880320E030E0C72ED82EF9
:1005B000E92EFF24E7FCFA94C01AD10AE20AF30AF2
:1005C000DC01CB0147E0B595A795979587954A95AE
:1005D000D1F7000F111F221F331F4C015D01801A3C
:1005E000910AA20AB30AA5019401A0918903B091CE
:1005F0008A030E94941C4B015C016BE0B594A794A4
:10060000979487946A95D1F7A7019601C701B6011F
:100610000E94621C9B01AC017CE055954795379583
:1006200027957A95D1F7A0918B03B0918C030E9406
:10063000941CDC01CB01EEE0B595A79597958795C5
:10064000EA95D1F7880D991DAA1DBB1D80937F03E4
:1006500090938003A0938103B093820387EF0E945D
:10066000D90D6E8B7F8B888F998F80917F039091AE
:100670008003A0918103B09182036C017D01FF0C86
:10068000CC08DC2C76019C01AD016C2D7C2D8C2DD1
:100690009C2D345F4140510961097109810991091B
:1006A00029873A874B87652E762E872E982E9B8F2B
:1006B0005901C42ED52EE62EF72E082F192F0E9491
:1006C0009C1C322E232E488B598B6A8B7B8B8C8BF8
:1006D0009D8B3091900320918F03932F990F990B4D
:1006E000492F592F692F792F892F0E949C1C0CE0CC
:1006F0000E94951D29833C874A8F5D876E877F877F
:10070000582E492E3091920320919103932F990FE7
:10071000990BA32CB22CC888D988EA88FB880C894D
:100720001D89492F592F692F792F892F0E949C1CD1
:1007300008E00E94AE1DA980BC84CA8CDD84EE84D2
:10074000FF84052D142D0E94CC1D70588F4F9F4F94
:10075000E0918D03F0918E035F01C12CD12CE12C2F
:10076000F12C8701E983BA82CB82DC82ED82FE82A2
:100770000F831887C12CD12CE12CF12C00E010E064
:100780000E949C1C01E20E94AE1D2A8F532E4983B9
:100790005C876D877E878F87492EA0E00E94DE1DD3
:1007A00009F41EC13091980320919703932F990F5C
:1007B000990BA32CB22CC888D988EA88FB880C89AD
:1007C0001D89492F592F692F792F892F0E949C1C31
:1007D0001901488B598B6A8B7B8B8C8B9D8B30914D
:1007E000960320919503932F990F990BA984BA84AE
:1007F000CB84D62CE72CF82C092D1B8D492F592F93
:10080000692F792F892F0E949C1C01E10E94951D60
:100810005101C888D988EA88FB880C891D890E9403
:10082000CC1D59016A017B01382E192F4E895F8931
:10083000688D798D84E075956795579547958A956C
:10084000D1F780E090E0A0E1B0E0841B950BA60B0F
:10085000B70B3C014D01990C6608762C43019C01B5
:10086000AD01662D762D862D962D0FE10E94951DEA
:10087000722E832E942E5987B62FA72FF82FE92F8B
:100880003091940320919303932F990F990B492F43
:10089000592F692F792F892F03E20E94951D032D6F
:1008A0000E94CC1D59016A017B018C01272D382D36
:1008B000492D59856B2F7A2F8F2F9E2F0E94D51D82
:1008C000E5E3AE2EFCE0BF2EC12CD12CE12CF12CA7
:1008D00000E010E00E949C1CAA8CB52CC980DC842E
:1008E000ED84FE840F85142D0E94F71C2F873E8710
:1008F00049875A876B8779838C879D870DE00E9493
:10090000AE1D922E832E742E652E562E472E382E17
:10091000292E30919E0320919D03932F990F990BBF
:10092000A92CB82CC72CD62CE52CF42C032D122D79
:10093000492F592F692F792F892F0E949C1C0E94C3
:100940009C1C09E10E94AE1DAF84BE84C984DA8478
:10095000EB84F9800C851D850E94CC1D19012A01AC
:100960003B014C0130919C0320919B03932F990FE5
:10097000990B492F592F692F792F892F0E949C1C81
:1009800003E10E94AE1D59016A017B018C019101B6
:10099000A201B301C4010E94CC1D08E00E94AE1D5B
:1009A00059016A017B01E82F192F30919A03209198
:1009B0009903932F990F990B492F592F692F792F4D
:1009C000892F04E00E94951D0E2F0E94CC1D0E94CD
:1009D000A91B20E030E040E85BE30E948C1903C0D3
:1009E00060E070E0CB0120E030E048EC52E40E948F
:1009F000081B20E030E040ED51E40E949C1A6B9609
:100A00000FB6F894DEBF0FBECDBFDF91CF911F911F
:100A10000F91FF90EF90DF90CF90BF90AF909F909D
:100A20008F907F906F905F904F903F902F900895A0
:100A30000C94D7104F925F926F927F928F929F92F9
:100A4000AF92BF92CF92DF92EF92FF92CF93DF935C
:100A5000CDB7DEB728970FB6F894DEBF0FBECDBF77
:100A60000E94D7104B015C010E94D20F882319F01D
:100A70000E94FB0B04C060E070E080EC9FE726E67C
:100A800036E646EE5FE30E948C1920E030E040E05D
:100A900052E40E949C1A6B017C0120E030E048E89F
:100AA00052E40E949B1A2AE939E949E95FE30E946E
:100AB0008C192B013C0120E030E044E752E4C701EF
:100AC000B6010E949C1A9B01AC01C301B2010E94B5
:100AD0009C1A2B013C0122E133E840EC5DE3C501A7
:100AE000B4010E948C199B01AC01C301B2010E94A8
:100AF0009C1A20E030E040E05FE30E948C192B015B
:100B00003C0120E030E04EE952E40E94FD1B181643
:100B10000CF075C1A7019601C701B6010E948C199E
:100B20002B013C01A5019401C501B4010E948C195F
:100B30006D837E838F83988721E133E243E050E425
:100B4000C701B6010E948C1929E134E849E252E458
:100B50000E949B1A69837A838B839C8326E13BE402
:100B600042E251E4C501B4010E948C199B01AC0121
:100B700069817A818B819C810E949C1A69837A8326
:100B80008B839C8328E436E246E65EEBC701B60120
:100B90000E948C19A50194010E948C199B01AC0143
:100BA00069817A818B819C810E949C1A69837A83F6
:100BB0008B839C8320EE3FE040EE5BEBC301B201F0
:100BC0000E948C199B01AC0169817A818B819C8187
:100BD0000E949C1A69837A838B839C8328EF37E871
:100BE00040E65DEB6D817E818F8198850E948C1936
:100BF0009B01AC0169817A818B819C810E949C1A46
:100C000069837A838B839C832CEA3DE041EA5AE333
:100C1000C301B2010E948C19A50194010E948C1994
:100C20009B01AC0169817A818B819C810E949C1A15
:100C300069837A838B839C8328EC3FE84FE55AE3F2
:100C4000C701B6010E948C192D813E814F815885C4
:100C50000E948C199B01AC0169817A818B819C81F6
:100C60000E949C1A69837A838B839C8321EF3BE8E3
:100C700045E056EBC301B2010E948C192D813E81E3
:100C80004F8158850E948C199B01AC0169817A8142
:100C90008B819C810E949C1A2B013C0120E030E05A
:100CA00040E551E4C501B4010E94261987FF5CC0EC
:100CB00020E030E040EA52E4C701B6010E94FD1B8B
:100CC00087FD52C020E030E040EE52E4C701B6019B
:100CD0000E94261918160CF4B5C0A501940160E015
:100CE00070E080E591E40E949B1A20E030E040E84B
:100CF0005EE30E948C194B015C0120E030E04EEB7A
:100D000052E4C701B6010E949B1A6B017C0120E0EE
:100D100030E0A9010E94FD1B18164CF4A7019601B2
:100D200060E070E088E891E40E949B1A08C020E02F
:100D300030E048E851E4C701B6010E949C1A2EE356
:100D40003DEE40E75DE30E948C190E94081C9B0168
:100D5000AC01C501B4010E948C199B01AC01C30117
:100D6000B2010E949B1A49C020E030E04AEA52E4F6
:100D7000C501B4010E94FD1B18160CF040C020E014
:100D800030E040EA52E4C701B6010E94FD1B87FD36
:100D900036C020E030E04EEA52E4C701B6010E94BE
:100DA0002619181664F120E030E04AEA52E4C50141
:100DB000B4010E949B1A2DEC3CEC4CEC5DE30E94CC
:100DC0008C194B015C01A701960160E070E08EEA8E
:100DD00092E40E949B1A2DEC3CEC4CE45EE30E94F2
:100DE0008C199B01AC01C501B4010E948C199B01B7
:100DF000AC01C301B2010E949C1A2B013C0120E00E
:100E000030E040E052E4C301B2010E949B1A26E8A0
:100E100038E34EE05FE30E948C1928960FB6F894F1
:100E2000DEBF0FBECDBFDF91CF91FF90EF90DF907F
:100E3000CF90BF90AF909F908F907F906F905F907A
:100E40004F90089520E030E04AEA52E4C501B40131
:100E50000E94FD1B18160CF49CCFD1CF0E94D20F1C
:100E600081110C94FB0B60E070E080EC9FE708952B
:100E70001F920F920FB60F9211242F933F934F930F
:100E80005F936F937F938F939F93AF93BF93EF93F2
:100E9000FF93E0910201F09103010995FF91EF9119
:100EA000BF91AF919F918F917F916F915F914F9182
:100EB0003F912F910F900FBE0F901F9018951F928A
:100EC0000F920FB60F9211242F933F934F935F937E
:100ED0006F937F938F939F93AF93BF93EF93FF9302
:100EE000E0910001F09101010995FF91EF91BF910F
:100EF000AF919F918F917F916F915F914F913F91B2
:100F00002F910F900FBE0F901F901895DC01ED915F
:100F1000FC910190F081E02D0994DB0114964D9134
:100F20005C9115976D917C91DC01ED91FC910280B3
:100F3000F381E02D09946115710579F0FB010190B1
:100F40000020E9F73197AF01461B570BDC01ED910B
:100F5000FC910280F381E02D099480E090E00895F7
:100F60002F923F924F925F926F927F928F929F92B9
:100F7000AF92BF92CF92DF92EF92FF920F931F93A7
:100F8000CF93DF93CDB7DEB7A2970FB6F894DEBF4D
:100F90000FBECDBF6C014A015B01F22E9A01AB017D
:100FA000C501B4010E94481C882319F068E671E06D
:100FB00027C024013501E89477F82FEF3FEF4FE782
:100FC0005FE7C301B2010E94481C81110DC02FEFE1
:100FD0003FEF4FE75FE7C301B2010E9426191816E1
:100FE0001CF46CE671E00CC02FEF3FEF4FE75FE4BD
:100FF000C501B4010E94FD1B181634F460E771E0CE
:10100000C6010E949B07B2C02FEF3FEF4FE75FEC96
:10101000C501B4010E94261987FDF0CF20E030E021
:10102000A901C501B4010E94261987FF0AC06DE21B
:10103000C6010E9486071C01B7FAB094B7F8B094B5
:1010400002C0212C312C10E060E070E080E09FE3D2
:10105000F11641F020E030E040E251E40E94081B2C
:101060001F5FF6CFA50194010E949C1A4B015C0101
:101070000E947A1B562E672E782EE92E19A2262F53
:10108000372F482F592F8E010F5D1F4F0AA3412E76
:10109000CA01B9012AE030E040E050E00E94721C31
:1010A000605DF80162938F012115310541055105FD
:1010B00079F7BF01C6010E949B078101080F191F24
:1010C000FF2009F452C0652D762D872D9E2D0E949C
:1010D0002B199B01AC01C501B4010E949B1A4B0165
:1010E0005C016EE2C6010E948607080F191F20E00E
:1010F00030E040E251E4C501B4010E948C194B017B
:101100005C010E947A1B9B0140E050E019A22AA0DA
:10111000342C562E632E742EE52ECA01B9012AE016
:1011200030E040E050E00E94721C605DF10162938B
:101130001F01211531054105510579F7BF01C60190
:101140000E949B07080F191F652D762D872D9E2D58
:101150000E942B199B01AC01C501B4010E949B1A8E
:101160004B015C01FA94F110C2CFC801A2960FB6F0
:10117000F894DEBF0FBECDBFDF91CF911F910F91CD
:10118000FF90EF90DF90CF90BF90AF909F908F90A7
:101190007F906F905F904F903F902F9008951F9297
:1011A0000F920FB60F9211242F933F934F935F939B
:1011B0006F937F938F939F93AF93BF93EF93FF931F
:1011C00080EB92E00E94FE00FF91EF91BF91AF9102
:1011D0009F918F917F916F915F914F913F912F914F
:1011E0000F900FBE0F901F9018951F920F920FB681
:1011F0000F9211242F938F939F93EF93FF93E0917E
:10120000C002F091C1028081E091C602F091C70254
:1012100082FD12C090818091C9028F5F8F732091EF
:10122000CA02821751F0E091C902F0E0E055FD4F8B
:10123000958F8093C90201C08081FF91EF919F91AA
:101240008F912F910F900FBE0F901F9018951F92A6
:101250000F920FB60F9211242F933F934F935F93EA
:101260006F937F938F939F93AF93BF93EF93FF936E
:101270008091B900887F803609F49CC068F5883277
:1012800009F45BC090F4803109F454C038F4882329
:1012900009F4F6C0883009F44DC0F6C0883109F46D
:1012A0004CC0803209F45DC0EFC0803409F468C0DE
:1012B00048F4803309F455C0883309F0E5C08093C1
:1012C0008B02D8C0803509F44FC0883509F45DC061
:1012D000883409F0D9C0D6C0883909F4C7C0A8F449
:1012E000883709F467C038F4883609F463C080375A
:1012F00009F460C0C9C0883809F4B8C0803909F45D
:101300005FC0803809F0C0C05BC0803B09F486C074
:1013100038F4803A09F466C0883A09F47FC0B4C052
:10132000803C09F4A7C0883C09F4A4C0883B09F4B8
:101330008AC0AAC08091880210C090918A028091D0
:101340008902981770F5E0918A0281E08E0F8093F0
:101350008A02F0E0E959FD4F80818093BB0085EC63
:1013600086C080938B028EC0E0918A0281E08E0F4E
:1013700080938A028091BB00F0E0E959FD4F8083A1
:1013800090918A02809189026EC0E0918A0281E088
:101390008E0F80938A028091BB00F0E0E959FD4FE7
:1013A000808380918C0281116DC081E080938702DF
:1013B00084EA61C083E080938D0210922802CFCF2F
:1013C00080912802803208F051C0E091280281E02B
:1013D0008E0F809328028091BB00F0E0E85FFD4F04
:1013E0008083BDCF85EC8093BC0010928D028091EC
:1013F0002802803230F4E0912802F0E0E85FFD4FEF
:1014000010826091280270E0E0912902F0912A0296
:1014100088E092E009951092280236C084E080931B
:101420008D021092070210920602E0912B02F091B9
:101430002C02099580910602811105C081E08093FC
:1014400006021092E601E091070281E08E0F809380
:101450000702F0E0EA51FE4F80818093BB0090913B
:10146000070280910602981708F479CF85E88093E7
:10147000BC000AC085EC8093BC0010928D0204C0B1
:1014800010928B020E949901FF91EF91BF91AF9151
:101490009F918F917F916F915F914F913F912F918C
:1014A0000F900FBE0F901F90189508958CBD9DBD95
:1014B0000895DC01ED91FC910684F785E02D40E074
:1014C00009940F931F93CF93DF93EC01423018F0F0
:1014D0008C8188608C834F836887222329F0413078
:1014E00019F48C8184608C8364E670E080E090E085
:1014F0000E94980F6C8164FD31C0E881F9810684F7
:10150000F785E02D42E063E0CE0109958BE496E497
:101510000197F1F7E881F9810684F785E02D42E033
:1015200063E0CE01099503E512E0C8010197F1F7E8
:10153000E881F9810684F785E02D42E063E0CE0181
:101540000995C8010197F1F7E881F9810684F785CB
:10155000E02D42E062E0CE01099517C06062CE0145
:101560000E94590A8BE496E40197F1F76C8160625E
:10157000CE010E94590A03E512E0C8010197F1F774
:101580006C816062CE010E94590AC8010197F1F78F
:101590006C816062CE010E94590A8BEE90E0019747
:1015A000F1F784E08D836CE0CE010E94590A61E07E
:1015B000CE010E94590A8BE39FE10197F1F782E087
:1015C0008E8366E0CE010E94590AE881F981048485
:1015D000F585E02D6FEFCE01DF91CF911F910F9137
:1015E0000994FF920F931F93CF93DF93EC01162F73
:1015F000042FF22E8B85888B0E946F0E888991E0D4
:1016000090932D0280934F0210922E02109250025E
:101610000E949F0B91E0811190E0998B811105C090
:101620008DE493E00E94DD018E878989882339F05B
:101630001F861C8260E0CE010E960E942E0D2F2D7B
:10164000402F612FCE01DF91CF911F910F91FF901D
:101650000C94610A80915102833019F41092510266
:1016600008958F5F809351020895CF92DF92EF9299
:10167000FF920E9447116B017C018091E2019091E1
:10168000E301A091E401B091E501A7019601281BB7
:10169000390B4A0B5B0B293C31054105510510F014
:1016A0000E942A0BC092E201D092E301E092E40191
:1016B000F092E501FF90EF90DF90CF900895CF92E8
:1016C000DF92EF92FF92CF93DF93B091AF03882325
:1016D00011F0AB2F01C0A0E08091B00390E0880F23
:1016E000991F84589F4FC090B503D090B603E090E7
:1016F000B703F090B80320E030E0FC01C591D4912D
:10170000E881EB23A90160E070E0EA130CC02F5FD1
:101710003F4F4C155D056E057F0578F33FEF2FEFCA
:101720008FEF9FEF03C0322F252FCB01632F722F36
:10173000DF91CF91FF90EF90DF90CF90089530919F
:101740005002313208F04BC080918D028111FCCFE4
:1017500090914F0222E020938D0221E020938C0291
:101760002FEF20938B0210928A0230938902EFE2CE
:10177000F2E0A7E6B2E020E0321721F041914D936C
:101780002F5FFACF1092880220918802990F922B36
:101790009093880290918702913061F410928702B1
:1017A000909188029093BB009091BC0093FDF8CF7C
:1017B00095EC01C095EE9093BC0090918D02923013
:1017C000E1F390918B029F3F79F080918B02803200
:1017D00041F080918B02803331F084E005C081E0DC
:1017E00003C082E001C083E010922E0210925002EA
:1017F00010922D020895CF92DF92EF92FF92CF9335
:101800008091AE038C3009F446C018F48B30D1F0CF
:1018100062C08551823008F05EC0C091AA036C2F6F
:101820006F7770E0762F66278091AB03682B80E09E
:1018300090E00E942B192DEC3CEC4CEC5DE30E94F7
:101840008C1945C06091AA0370E080E090E00E948E
:101850002B196B017C01C091AB03C7FF0AC09B0130
:10186000AC0160E070E080E89FEB0E949B1A6B0186
:101870007C016C2F6F7070E080E090E00E942D1969
:101880002DEC3CEC4CEC5DE30E948C19A701960119
:101890000E949C1A24C0C091AA036C2F70E080E0C3
:1018A00090E00E942B196B017C016091AB036F707B
:1018B00070E080E090E00E942D192DEC3CEC4CECA7
:1018C0005DE30E948C19A70196010E949C1AC7FF34
:1018D00006C0905804C060E070E080EC9FE7CF91B4
:1018E000FF90EF90DF90CF9008950F931F93CF93C9
:1018F000DF93CDB7DEB728970FB6F894DEBF0FBEE3
:10190000CDBF00910A0110910B0120910C01309183
:101910000D010D831E832F83388700910E011091D6
:101920000F01209110013091110109831A832B833B
:101930003C8390916803691710F06FEF690F409135
:101940006903262F30E0FE01E20FF31F403121F43E
:10195000943011F4618101C06581680F606881E68F
:1019600093E028960FB6F894DEBF0FBECDBFDF918F
:10197000CF911F910F910C94590A1F93CF93DF932E
:10198000EC0161E081E693E00E94590A8BE39FE15C
:101990000197F1F760E08E890E94750CBE016E5FC1
:1019A0007F4F81E693E00E948D0761E08F890E945E
:1019B000750C1D89E881F9810190F081E02DCE013F
:1019C0000995AB01BC01212F81E693E00E94B0078D
:1019D00065E771E081E693E00E949B07BE01685FC6
:1019E0007F4F81E693E0DF91CF911F910C948D079B
:1019F0001F93CF93DF93EC01BC016E5F7F4F80EBB1
:101A000092E00E948D0764E771E080EB92E00E9413
:101A10009B071D89E881F9810190F081E02DCE01BD
:101A20000995AB01BC01212F80EB92E00E94B00729
:101A300065E771E080EB92E00E949B07BE01625F68
:101A40007F4F80EB92E00E948D0767E771E080EBAB
:101A500092E0DF91CF911F910C949B07FC012381B1
:101A60002223B1F08181682B6083828191E0909381
:101A70002D0280934F0210922E02109250028DE49C
:101A800093E00E9426020E949F0B282F30E002C0A4
:101A900020E030E081E090E0232B11F080E090E046
:101AA0000895EF92FF920F931F93CF938C01FC0147
:101AB00084E0C0E060FF02C09589C92B6695815023
:101AC00031968111F7CF413011F4F8014489F801C2
:101AD0008585C82BC42B7801FEE0EF0EF11CF801C0
:101AE00062896C2BC7010E942E0DF80162896095F6
:101AF0006C23C701CF911F910F91FF90EF900C9431
:101B00002E0D833081F028F4813099F08230A1F0DD
:101B100008958730A9F08830B9F08430D1F48091ED
:101B200080008F7D03C0809180008F77809380003C
:101B3000089584B58F7702C084B58F7D84BD0895E4
:101B40008091B0008F7703C08091B0008F7D80932B
:101B5000B00008951F93CF93DF93282F30E0F90151
:101B6000EA57FF4F8491F901E255FF4FD491F901F3
:101B7000E656FF4FC491CC23C1F0162F81110E946D
:101B8000810DEC2FF0E0EE0FFF1FEE58FF4FA591F7
:101B9000B4919FB7F894111104C08C91D095D823BB
:101BA00002C0EC91DE2BDC939FBFDF91CF911F91A0
:101BB00008954F925F926F927F928F929F92AF9211
:101BC000BF92CF92DF92EF92FF92CF93C82F809176
:101BD00083038F3F09F040C080917A0391E0909396
:101BE0002D0280934F0210922E02109250026C2F01
:101BF0008DE493E00E9426020E949F0B63E0809197
:101C00007A030E94FD118DE493E00E94DD012C0116
:101C1000990F66087708762C652C542C44248DE4A3
:101C200093E00E94DD016C01990FEE08FF08C428C3
:101C3000D528E628F72888249C2CAD2CBE2C8DE4D2
:101C400093E00E94DD016C01990FEE08FF08C8289F
:101C5000D928EA28FB2833C0809186038F3F21F4DE
:101C600082E591E00E94560A60E0809183030E9421
:101C7000AA0D8C2F80680E949D1180E00E949D110A
:101C8000C82ED12CE12CF12CFE2CED2CDC2CCC24FC
:101C900080E00E949D11C82AFE2CED2CDC2CCC2467
:101CA00080E00E949D11C82A61E0809183030E9418
:101CB000AA0D809186038F3F11F40E94550AC70137
:101CC000B601CF91FF90EF90DF90CF90BF90AF9093
:101CD0009F908F907F906F905F904F90089510929B
:101CE0008F0210928E0210922E02109250021092C9
:101CF0008D0281E080938C021092870261E082E184
:101D00000E94AA0D61E083E10E94AA0DE9EBF0E0D8
:101D100080818E7F808380818D7F808388E4809323
:101D2000B80085E48093BC008BEC91E090932C028A
:101D300080932B028CEC91E090932A0280932902ED
:101D40000895CF93DF93C82F809183038F3F39F598
:101D500080917A0391E090932D0280934F0210922C
:101D60002E02109250026C2F8DE493E00E94260206
:101D70000E949F0B62E080917A030E94FD118DE426
:101D800093E00E94DD01C82F8DE493E00E94DD0105
:101D900020E030E03C2FE901C82BD92B29C08091ED
:101DA00086038F3F21F482E591E00E94560A60E0AD
:101DB000809183030E94AA0D8C2F80680E949D1140
:101DC00080E00E949D11C82F80E00E949D112C2F61
:101DD00030E0322F2227E901C82B61E08091830394
:101DE0000E94AA0D809186038F3F11F40E94550A2C
:101DF0009C2F8D2FDF91CF910895CF93DF9390E0AB
:101E0000FC01E255FF4F2491FC01E656FF4F8491FF
:101E1000882361F190E0880F991FFC01E859FF4F7A
:101E2000C591D491FC01EE58FF4FA591B491611179
:101E300009C09FB7F8948881209582238883EC910C
:101E40002E230BC0623061F49FB7F8948881322F43
:101E5000309583238883EC912E2B2C939FBF06C053
:101E60008FB7F894E8812E2B28838FBFDF91CF9115
:101E700008951F93CF93DF93182FEB0161E00E9429
:101E8000FD0E209711F460E004C0CF3FD10539F476
:101E900061E0812FDF91CF911F910C94AA0DE12F6A
:101EA000F0E0EA57FF4FE491E330F9F048F4E13015
:101EB000B9F0E230A1F584B5806284BDC8BD34C0FC
:101EC000E730E9F0E83019F1E43049F5809180001D
:101ED000806280938000D0938B00C0938A0024C0DE
:101EE00084B5806884BDC7BD1FC0809180008068B4
:101EF00080938000D0938900C093880015C08091A2
:101F0000B00080688093B000C093B3000DC0809192
:101F1000B00080628093B000C093B40005C0C038A8
:101F2000D1050CF0B5CFAFCFDF91CF911F910895C0
:101F30008F929F92AF92BF92CF92DF92EF92FF92D9
:101F40006B017C010E9422114B015C01C114D10480
:101F5000E104F104F1F00E942211DC01CB018819A7
:101F60009909AA09BB09883E9340A105B10570F300
:101F700021E0C21AD108E108F10888EE880E83E05A
:101F8000981EA11CB11CC114D104E104F10419F77D
:101F9000DDCFFF90EF90DF90CF90BF90AF909F90FC
:101FA0008F900895CF92DF92EF92FF920F931F933D
:101FB000CF93DF93CDB7DEB7C054D1400FB6F894BE
:101FC000DEBF0FBECDBF0E9447110091B10310913B
:101FD000B2032091B3033091B4036B017C01C01AAA
:101FE000D10AE20AF30A40EDC41647E0D406E10440
:101FF000F10418F48091B903CAC06093B1037093DF
:10200000B2038093B3039093B4031092AC03109285
:10201000AB031092AA031092A9031092A80362E0E6
:102020008091AD030E94FD0E61E070E080E090E0E1
:102030000E94980F61E08091AD030E94FD0E60E068
:102040008091AD030E94AA0D8091AE03855182302C
:1020500028F48BE291E10197F1F706C064E170E0AA
:1020600080E090E00E94980F62E08091AD030E94B2
:10207000FD0E8091BA0390E08230910538F0880F10
:10208000991F880F991F05970197F1F7F89480E041
:102090000E945F0B6F3F7F4F8F4F9F4F21F4109235
:1020A000B903789441C081E00E945F0B6F3F7F4F7E
:1020B0008F4F9F4FA1F38E010F5F1F4F6E012FEBCC
:1020C000C21A2EEFD20A780180E00E945F0BF7015E
:1020D000608371838283938381E00E945F0BF701A9
:1020E0006483758386839783F8E0EF0EF11CEC140C
:1020F000FD0451F7789420E030E0F801C080D180F1
:10210000E280F3804481558166817781FFEFCF16AD
:10211000DF06EF06FF0631F04F3F8FEF58076807E5
:10212000780721F41092B90380E031C0F90183E00F
:10213000F595E7958A95E1F7E855FC4F8081880F82
:10214000C416D506E606F70608F4816080832F5F83
:102150003F4F085F1F4F2832310579F62091AC03BD
:1021600030E04091A8038091A90390E0840F911D75
:102170004091AA03840F911D4091AB03840F911DE0
:1021800099272817390771F681E08093B903C05C5D
:10219000DE4F0FB6F894DEBF0FBECDBFDF91CF91FB
:1021A0001F910F91FF90EF90DF90CF900895CF9205
:1021B000DF92EF92FF920E94D20F8823C1F18091AB
:1021C000AE038B30A0F18D30A8F08551823078F5C8
:1021D0006091A8037091A90376276727762780E08E
:1021E00090E00E942B192DEC3CEC4CEC5DE30E943E
:1021F0008C1921C06091A90370E080E090E00E94FA
:102200002D192DEC3CEC4CEC5DE30E948C196B011C
:102210007C016091A80370E080E090E00E942D199D
:102220009B01AC01C701B6010E949C1A04C060E08A
:1022300070E080EC9FE7FF90EF90DF90CF900895E3
:102240000E94D71F3FB7F894809163029091640277
:10225000A0916502B091660226B5A89B05C02F3FEC
:1022600019F00196A11DB11D3FBFBA2FA92F982FBC
:102270008827820F911DA11DB11DBC01CD0142E037
:10228000660F771F881F991F4A95D1F708952FB7BA
:10229000F89460915F027091600280916102909168
:1022A00062022FBF08951F920F920FB60F92112452
:1022B0002F933F938F939F93AF93BF9380915F0230
:1022C00090916002A0916102B091620230915E0231
:1022D00023E0230F2D3720F40196A11DB11D05C069
:1022E00026E8230F0296A11DB11D20935E02809364
:1022F0005F0290936002A0936102B09362028091AA
:10230000630290916402A0916502B0916602019609
:10231000A11DB11D8093630290936402A093650296
:10232000B0936602BF91AF919F918F913F912F9192
:102330000F900FBE0F901F901895CF92DF92EF92E3
:10234000FF920F931F93CF93DF93909186039F3F4C
:1023500039F48EBD00000DB407FEFDCF8EB544C02C
:10236000E82EF12CC7E0D0E001E010E0FF0C60E0C7
:10237000809186030E94AA0DB8010C2E01C0660F41
:102380000A94EAF76E21809184030E94AA0D61E00D
:10239000809186030E94AA0D2091850330E0F90107
:1023A000EA57FF4F8491F901E255FF4FD490F901AC
:1023B000E656FF4FC490CC2071F081110E94810D30
:1023C000EC2DF0E0EE0FFF1FE458FF4FA591B49104
:1023D000EC91DE2229F4219708F0C8CF8F2D04C09C
:1023E0008F2D8160F82EF7CFDF91CF911F910F9144
:1023F000FF90EF90DF90CF90089590918D02911112
:10240000FCCF613208F060E291E090938D029093EE
:102410008C022FEF20938B0210928A02260F2093BA
:1024200089029093880290918802880F892B80936B
:10243000880280918702813061F410928702809136
:1024400088028093BB008091BC0083FDF8CF85ECAF
:1024500001C085EE8093BC0080918D028130E1F354
:1024600080918A02861710F460918A02E7E6F2E012
:10247000A0E9B2E080E0861721F091919D938F5FF3
:10248000FACF10928F0280938E0208950F931F93BC
:10249000CF93DF93EC0188819981009729F02A81FD
:1024A0003B812617370788F48B016F5F7F4F0E94AF
:1024B000111F009761F0998388831B830A832C8105
:1024C0003D81232B11F4FC01108281E001C080E0EA
:1024D000DF91CF911F910F910895FB01DC011196BF
:1024E0001C921E9213961C921E92129715961C9285
:1024F0001E9214978617970749F0608171816115C4
:10250000710521F0448155810C9461160895FC01F8
:102510001182108213821282158214826115710554
:1025200051F0FB0101900020E9F73197AF01461B04
:10253000570B0C9461160895FC01808191810C94D5
:10254000881EDC01FB0111961C921E9213961C92B0
:102550001E92129715961C921E921497808191815B
:1025600011969C938E938281938113969C938E9364
:1025700012978481958115969C938E93149711825E
:102580001082138212821582148208950F931F9372
:10259000CF93DF93EC010C811D810F5F1F4FB801BA
:1025A0000E94461228813981882359F08C819D81AF
:1025B0006CEB71E0820F931F0E94E51F1D830C835B
:1025C0000CC02115310519F0C9010E94881E19821D
:1025D00018821D821C821B821A82CE01DF91CF914C
:1025E0001F910F910895CF93DF9300D0CDB7DEB741
:1025F000FC011182108213821282158214822FED47
:1026000029831A82BE016F5F7F4FFB01019000207A
:10261000E9F73197AF01461B570B0E9461160F90E7
:102620000F90DF91CF910895789484B5826084BD36
:1026300084B5816084BD85B5826085BD85B58160C6
:1026400085BD80916E00816080936E001092810044
:1026500080918100826080938100809181008160FF
:1026600080938100809180008160809380008091C0
:10267000B10084608093B1008091B000816080934C
:10268000B00080917A00846080937A0080917A0013
:10269000826080937A0080917A00816080937A00D2
:1026A00080917A00806880937A001092C100E09156
:1026B000C002F091C10282E08083E091BC02F091FF
:1026C000BD021082E091BE02F091BF028FEC8083C8
:1026D0001092C802E091C402F091C50286E08083A6
:1026E000E091C202F091C302808180618083E09119
:1026F000C202F091C302808188608083E091C202AF
:10270000F091C302808180688083E091C202F091E1
:10271000C30280818F7D808362E082E00E94FD0E93
:1027200085E39BE090930101809300018091690013
:102730008C7F826080936900E89A86E780937A03B1
:10274000809183038F3F19F40E946F0E4EC061E0A9
:102750000E94AA0D61E0809183030E94FD0E80918A
:1027600086038F3F09F034C0CFB7F89480915202AE
:10277000811127C0E4EAF0E08491E8EBF0E0949165
:10278000E82FF0E0EE0FFF1FE859FF4FA591B4913D
:10279000EC91E92321F461E08AE00E94AA0D61E056
:1027A0008AE00E94FD0E8CB580618CBD8CB5806482
:1027B0008CBD61E08DE00E94FD0E61E08BE00E9427
:1027C000FD0E809152028F5F80935202CFBF0DC0E9
:1027D00061E00E94FD0E61E0809184030E94FD0E85
:1027E00060E0809185030E94FD0E809183038F3FFE
:1027F000E9F480917A0391E090932D0280934F0247
:1028000010922E021092500260ED8DE493E00E942F
:1028100026020E949F0B61E080917A030E94FD11C5
:102820008DE493E00E94DD01C82F1FC080918603D4
:102830008F3F21F482E591E00E94560A60E080918A
:1028400083030E94AA0D80ED0E949D1180E00E94EA
:102850009D11C82F61E0809183030E94AA0D809191
:1028600086038F3F11F40E94550AC83509F01CC237
:1028700088E80E94A10E90938803809387038AE8DA
:102880000E94A10E90938A03809389038CE80E9492
:10289000A10E90938C0380938B038EE80E94A10E6F
:1028A00090938E0380938D0380E90E94A10E9093F4
:1028B000900380938F0382E90E94A10E909392036C
:1028C0008093910384E90E94A10E909394038093D6
:1028D000930386E90E94A10E90939603809395033B
:1028E00088E90E94A10E90939803809397038AE948
:1028F0000E94A10E90939A03809399038CE90E9401
:10290000A10E90939C0380939B038EE90E94A10EDD
:1029100090939E0380939D03809183038F3FC1F426
:1029200080917A0391E090932D0280934F02109250
:102930002E021092500264EF8DE493E00E94260272
:102940006FE38DE493E00E9426020E949F0B1EC05D
:10295000809186038F3F21F482E591E00E94560A20
:1029600060E0809183030E94AA0D84E70E949D117C
:102970008FE30E949D1161E0809183030E94AA0D64
:10298000809186038F3F11F40E94550A62E0809186
:10299000AD030E94FD0E0E944711DC01CB01805D5A
:1029A0009740A109B1098093B1039093B203A0931A
:1029B000B303B093B40387E38093BA0320E042E00B
:1029C00060E181E693E00E94F10A6FEF81E693E017
:1029D0000E949902E0915102F0E0EE0FFF1FE75ACA
:1029E000FC4F808191810E94BD0C13E0C1E6D3E0D1
:1029F000E0915D0280915102E81779F0E82FF0E054
:102A0000EE0FFF1FE75AFC4F808191810E94BD0CA1
:102A10008091510280935D0231C0F0E0EE0FFF1F04
:102A2000E75AFC4FE080F18061E0D70157968C9126
:102A30000E94750CF70105890190F081E02D01904D
:102A4000F081E02DC7010995AB01BC01202F81E683
:102A500093E00E94B00765E771E081E693E00E9491
:102A60009B07B701685F7F4F81E693E00E948D0767
:102A700065E771E081E693E00E949B0780EB92E0BE
:102A80000E94E80018161906CCF580EB92E00E942F
:102A9000C6008E3699F054F4843611F18536E1F093
:102AA000823661F581E080935B0228C0803749F06F
:102AB000D4F08A3719F510925B0220C00E942A0BCD
:102AC00012C080915102811103C0109351020BC0BA
:102AD00081508093510207C081E080935C020EC058
:102AE00010925C020BC0E0915102F0E0EE0FFF1F6C
:102AF000E75AFC4F808191810E94F80C80915C0222
:102B0000882361F10E9447116B017C01809153027F
:102B100090915402A0915502B0915602A7019601DE
:102B2000281B390B4A0B5B0BDA01C901813D974029
:102B3000A105B10598F0E0915102F0E0EE0FFF1F02
:102B4000E75AFC4F808191810E94F80CC092530299
:102B5000D0925402E0925502F092560280915B02AC
:102B6000882309F44EC00E9447114B015C018091FB
:102B7000570290915802A0915902B0915A02A501B2
:102B80009401281B390B4A0B5B0BDA01C901813D0B
:102B90009740A105B105A8F189E5C82E83E0D82E9C
:102BA000D601ED90FD906D016AE280EB92E00E940B
:102BB0008607F701648980EB92E00E948607D701BF
:102BC00055960C915597ED91FC910190F081E02D77
:102BD000C7010995AB01BC01202F80EB92E00E9458
:102BE000B0076AE280EB92E00E948607CC15DD0513
:102BF000B9F68092570290925802A0925902B09270
:102C00005A0280915B0390915C03DC01ED91FC9191
:102C10000190F081E02D099520E030E040EF51E493
:102C20000E94261987FF0DC06FEF70E083E00E94BD
:102C3000390F6FEF70E085E00E94390F60E070E0BF
:102C400027C080915B0390915C03DC01ED91FC91C6
:102C50000190F081E02D099520E030E04CE552E450
:102C60000E94FD1B181644F460E070E083E00E94AF
:102C7000390F6FEF70E007C06FEF70E083E00E94E4
:102C8000390F60E070E085E00E94390F6FEF70E06F
:102C900086E00E94390F68EC70E080E090E00E94CE
:102CA000980F0E948F01A4CE6AE771E080EB92E05A
:102CB0000E949B0767E771E080EB92E00E949B0710
:102CC00065CEEF92FF920F931F93CF93DF93EC01AA
:102CD0007B018A01BA010E94461228813981811143
:102CE0000DC02115310519F0C9010E94881E1982F5
:102CF00018821D821C821B821A8206C01D830C83CF
:102D0000B701C9010E94E51FCE01DF91CF911F914C
:102D10000F91FF90EF900895BF92CF92DF92EF92C4
:102D2000FF920F931F93CF93DF93CDB7DEB7E0975A
:102D30000FB6F894DEBF0FBECDBFE0EBF2E013821A
:102D4000128288EE93E0A0E0B0E084839583A683AE
:102D5000B78326E131E03183208325EC30E03587ED
:102D6000248724EC30E03787268720EC30E0318B55
:102D7000208B21EC30E0338B228B22EC30E0358B42
:102D8000248B26EC30E0378B268B118E128E138E1F
:102D9000148EEDE4F3E01382128284839583A6837C
:102DA000B78388E291E091838083A8EAB3E087E06B
:102DB00015968C9315978BE016968C931697E5EBEA
:102DC000F0E0E4911796EC931797E1EAF0E0E491D4
:102DD0001896EC93189740E85EE360E070E01D966B
:102DE0004D935D936D937C935097EAE7F3E08AE00F
:102DF00081878FEF828783878487E1E6F3E0138200
:102E0000128228E531E031832083108A8787168675
:102E1000118A87E28387148615861286118684E0DC
:102E2000D82ED28A92E0B92EB38ACC24C394C48A15
:102E300080E1858B80E2868B80E4878B80E8808FC1
:102E400040E050E063E0CF010E9455026EEA71E07D
:102E5000CE018B960E948712CE0149960E94F312F2
:102E6000BE01675E7F4FCE014F960E946D12CE016C
:102E70004F960E94C612BC01CE0185960E946D122B
:102E80006AEB71E0CE0143960E94871288E190E0E0
:102E90000E94F01D8C01BE016D5E7F4FCE010D962C
:102EA0000E94A112BE016B5D7F4FCE0107960E946A
:102EB000A112BE01655D7F4FCE0101960E94A11255
:102EC0002CE4E22E21E0F22EF801E192F192CF0102
:102ED000BE016F5F7F4F0E946D12BE01695F7F4F21
:102EE000C80108960E946D12BE01635F7F4FC80142
:102EF0000E960E946D1284E5F801848BC58AB68A0D
:102F0000D78ACE0101960E949C12CE0107960E949C
:102F10009C12CE010D960E949C1282E591E0F80170
:102F2000918380831093C2030093C103CE01439623
:102F30000E949C12CE0185960E949C12CE014F9653
:102F40000E949C12CE0149960E949C12CE018B9643
:102F50000E949C126EEB71E0CE018B960E9487124C
:102F6000CE0149960E94F312BE01675E7F4FCE01EB
:102F70004F960E946D12CE014F960E94C612BC0160
:102F8000CE0185960E946D126AEB71E0CE014396E8
:102F90000E94871288E190E00E94F01D8C01BE0122
:102FA0006D5E7F4FCE010D960E94A112BE016B5D3A
:102FB0007F4FCE0107960E94A112BE01655D7F4F33
:102FC000CE0101960E94A112F801E192F192CF0187
:102FD000BE016F5F7F4F0E946D12BE01695F7F4F20
:102FE000C80108960E946D12BE01635F7F4FC80141
:102FF0000E960E946D1289E4F801848BC58A83E0E5
:10300000868BD78ACE0101960E949C12CE0107962C
:103010000E949C12CE010D960E949C1286E491E0C3
:10302000F801918380831093C0030093BF03CE0106
:1030300043960E949C12CE0185960E949C12CE015E
:103040004F960E949C12CE0149960E949C12CE017E
:103050008B960E949C1269EC71E0CE014F960E9403
:10306000871262ED71E0CE0149960E94871262EDEF
:1030700071E0CE0143960E94871288E190E00E94A1
:10308000F01D8C01BE016D5E7F4FCE010D960E943A
:10309000A112BE01675E7F4FCE0107960E94A1126A
:1030A000BE01615E7F4FCE0101960E94A112F80120
:1030B000E192F192CF01BE016F5F7F4F0E946D12CE
:1030C000BE01695F7F4FC80108960E946D12BE0164
:1030D000635F7F4FC8010E960E946D1280E5F80174
:1030E000848B158AD68AD78ACE0101960E949C12BB
:1030F000CE0107960E949C12CE010D960E949C1252
:1031000080E491E0F801918380831093BE030093E3
:10311000BD03CE0143960E949C12CE0149960E94A7
:103120009C12CE014F960E949C1266ED71E0CE017A
:103130004F960E9487126FED71E0CE0149960E9472
:1031400087126FED71E0CE0143960E94871288E1ED
:1031500090E00E94F01D8C01BE016D5E7F4FCE019C
:103160000D960E94A112BE01675E7F4FCE010796A9
:103170000E94A112BE01615E7F4FCE0101960E94A6
:10318000A112F801E192F192CF01BE016F5F7F4F72
:103190000E946D12BE01695F7F4FC80108960E94B0
:1031A0006D12BE01635F7F4FC8010E960E946D12C3
:1031B00088E4F801848B158AD68A86E0878BCE0155
:1031C00001960E949C12CE0107960E949C12CE018D
:1031D0000D960E949C128AE391E0F801918380830E
:1031E0001093BC030093BB03CE0143960E949C1234
:1031F000CE0149960E949C12CE014F960E949C12CD
:10320000E9E5F3E08091C1039091C203918380834B
:10321000138302838091BF039091C00395838483BD
:103220008091BD039091BE0397838683E0960FB68D
:10323000F894DEBF0FBECDBFDF91CF911F910F91EC
:10324000FF90EF90DF90CF90BF9008950E94681993
:1032500008F481E00895E89409C097FB3EF4909546
:103260008095709561957F4F8F4F9F4F9923A9F05F
:10327000F92F96E9BB279395F695879577956795EE
:10328000B795F111F8CFFAF4BB0F11F460FF1BC032
:103290006F5F7F4F8F4F9F4F16C0882311F096E9C5
:1032A00011C0772321F09EE8872F762F05C0662373
:1032B00071F096E8862F70E060E02AF09A95660F2C
:1032C000771F881FDAF7880F9695879597F90895E5
:1032D000990F0008550FAA0BE0E8FEEF1616170627
:1032E000E807F907C0F012161306E407F50798F08F
:1032F000621B730B840B950B39F40A2661F0232BA8
:10330000242B252B21F408950A2609F4A140A69523
:103310008FEF811D811D08950E949F190C94101A32
:103320000E94021A38F00E94091A20F0952311F029
:103330000C94F9190C94FF1911240C94441A0E944E
:10334000211A70F3959FC1F3950F50E0551F629FAE
:10335000F001729FBB27F00DB11D639FAA27F00DEE
:10336000B11DAA1F649F6627B00DA11D661F829F15
:103370002227B00DA11D621F739FB00DA11D621FFA
:10338000839FA00D611D221F749F3327A00D611D17
:10339000231F849F600D211D822F762F6A2F1124F9
:1033A0009F5750409AF0F1F088234AF0EE0FFF1F2C
:1033B000BB1F661F771F881F91505040A9F79E3F83
:1033C000510580F00C94F9190C94441A5F3FE4F312
:1033D000983ED4F3869577956795B795F795E795D9
:1033E0009F5FC1F7FE2B880F911D9695879597F9E2
:1033F000089597F99F6780E870E060E008959FEF77
:1034000080EC089500240A9416161706180609067B
:10341000089500240A94121613061406050608954A
:10342000092E0394000C11F4882352F0BB0F40F4D2
:10343000BF2B11F460FF04C06F5F7F4F8F4F9F4F12
:10344000089557FD9058440F551F59F05F3F71F094
:103450004795880F97FB991F61F09F3F79F08795FB
:103460000895121613061406551FF2CF4695F1DF84
:1034700008C0161617061806991FF1CF8695710514
:10348000610508940895E894BB2766277727CB0148
:1034900097F908950E948C1AA59F900DB49F900DE6
:1034A000A49F800D911D112408952F923F924F9259
:1034B0005F926F927F928F929F92AF92BF92CF92C4
:1034C000DF92EF92FF920F931F93CF93DF93CDB7CD
:1034D000DEB7CA1BDB0B0FB6F894DEBF0FBECDBF45
:1034E00009942A88398848885F846E847D848C8416
:1034F0009B84AA84B984C884DF80EE80FD800C811F
:103500001B81AA81B981CE0FD11D0FB6F894DEBF01
:103510000FBECDBFED010895A29FB001B39FC001C2
:10352000A39F700D811D1124911DB29F700D811DEF
:103530001124911D08955058BB27AA270E94B31A41
:103540000C94101A0E94021A38F00E94091A20F0F6
:1035500039F49F3F19F426F40C94FF190EF4E0950A
:10356000E7FB0C94F919E92F0E94211A58F3BA17B6
:10357000620773078407950720F079F4A6F50C9489
:10358000431A0EF4E0950B2EBA2FA02D0B01B901B2
:1035900090010C01CA01A0011124FF27591B99F0C9
:1035A000593F50F4503E68F11A16F040A22F232FD5
:1035B000342F4427585FF3CF469537952795A79525
:1035C000F0405395C9F77EF41F16BA0B620B730BCC
:1035D000840BBAF09150A1F0FF0FBB1F661F771F3D
:1035E000881FC2F70EC0BA0F621F731F841F48F4F2
:1035F000879577956795B795F7959E3F08F0B0CF7B
:103600009395880F08F09927EE0F97958795089561
:103610000E941C1B0C94101A0E94091A58F00E9458
:10362000021A40F029F45F3F29F00C94F919511166
:103630000C94441A0C94FF190E94211A68F39923E0
:10364000B1F3552391F3951B550BBB27AA2762179E
:103650007307840738F09F5F5F4F220F331F441FAB
:10366000AA1FA9F335D00E2E3AF0E0E832D09150DF
:103670005040E695001CCAF72BD0FE2F29D0660FCC
:10368000771F881FBB1F261737074807AB07B0E80F
:1036900009F0BB0B802DBF01FF2793585F4F3AF015
:1036A0009E3F510578F00C94F9190C94441A5F3F31
:1036B000E4F3983ED4F3869577956795B795F7959B
:1036C0009F5FC9F7880F911D9695879597F9089583
:1036D000E1E0660F771F881FBB1F6217730784071F
:1036E000BA0720F0621B730B840BBA0BEE1F88F72E
:1036F000E09508950E94291A88F09F5798F0B92FF5
:103700009927B751B0F0E1F0660F771F881F991F16
:103710001AF0BA95C9F714C0B13091F00E94431A5B
:10372000B1E008950C94431A672F782F8827B85F6B
:1037300039F0B93FCCF3869577956795B395D9F76E
:103740003EF490958095709561957F4F8F4F9F4F78
:10375000089597FB16F40E94ED1B0C94B01BE8949F
:10376000F92F96EBFF2381F0121613061406440B73
:103770009395F69587957795679557954040FF23E4
:10378000B9F71BC099270895882351F49850D2F7B0
:10379000872B762F652F542F432F322F20E0B1F344
:1037A000121613061406440B88233AF09A95440F18
:1037B000551F661F771F881FCAF755234AF4440F09
:1037C000551F11F460FF04C06F5F7F4F8F4F9F4FF5
:1037D000880F9695879597F908959095809570959F
:1037E000609550954095309521953F4F4F4F5F4FD5
:1037F0006F4F7F4F8F4F9F4F08950E94681908F4B5
:103800008FEF089519F416F40C94FF190C944D1CC5
:103810000E94291AB8F39923C9F3B6F39F57550BA1
:1038200087FF0E945B1C0024A0E640EA90018058BC
:103830005695979528F4805C660F771F881F20F0B7
:1038400026173707480730F4621B730B840B2029B7
:1038500031294A2BA69517940794202531254A270C
:1038600058F7660F771F881F20F02617370748077D
:1038700030F4620B730B840B200D311D411DA0959C
:1038800081F7B901842F9158880F969587950895EF
:103890000E946819880B990B08959F3F31F0915051
:1038A00020F4879577956795B795880F911D969524
:1038B000879597F9089591505040660F771F881F9C
:1038C000D2F70895DB018F939F930E944A1ABF910C
:1038D000AF91A29F800D911DA39F900DB29F900D5F
:1038E00011240895A1E21A2EAA1BBB1BFD010DC0D5
:1038F000AA1FBB1FEE1FFF1FA217B307E407F507A0
:1039000020F0A21BB30BE40BF50B661F771F881F7B
:10391000991F1A9469F760957095809590959B0111
:10392000AC01BD01CF010895B7FF0C944A1A0E9463
:103930004A1A821B930B0895DF93CF931F930F9323
:103940009A9DF02D219FF00D8B9DF00D8A9DE02D0D
:10395000F10D039FF00D029FE00DF11D4E9DE00D56
:10396000F11D5E9DF00D4F9DF00D7F936F93BF9203
:10397000AF925F934F93D5010E948C1A8B01AC01DB
:10398000D7010E948C1AEB01E80FF91FD6010E94A3
:10399000EC1C2F913F91D6010E948C1AC60FD71FA5
:1039A000E81FF91FAF91BF910E94EC1C2F913F912E
:1039B0000E948C1AC60FD71FE81FF91FD6010E945C
:1039C0008C1AE60FF71F9801BE01CF0111240F9149
:1039D0001F91CF91DF9108950E948C1A460F571FB7
:1039E000C81FD91F08F431960895689401C0E8945F
:1039F000F92FF12B12F00C94291DA0E0B0E0E3E0C8
:103A0000FDE10C945B1A092E059422F40E94851D99
:103A1000112392F4F0E80F26FFEFE094F094009564
:103A20001095B094C094D094A194BF0ACF0ADF0A35
:103A3000EF0AFF0A0F0B1F0B0E94341D07FC0E94A8
:103A4000851DCDB7DEB7ECE00C94771A689401C001
:103A5000E8948F929F92CF93DF930E94341DDF9161
:103A6000CF919F908F90089588249924F401E401C8
:103A7000B0E49F93AA279A158B049C04ED05FE05DC
:103A8000CF05D007A10798F4AD2FDC2FCF2FFE2F45
:103A9000E92D982C892E982F872F762F652F542F5C
:103AA000432F322F2227B85031F7BF9127C01B2E4A
:103AB000BF91BB27220F331F441F551F661F771F5F
:103AC000881F991F881C991CEE1FFF1FCC1FDD1F2C
:103AD000AA1FBB1F8A149B04EC05FD05CE05DF055C
:103AE000A007B10748F08A189B08EC09FD09CE0928
:103AF000DF09A00BB10B21601A94E1F62EF49401BA
:103B0000AF01BE01CD01000C0895609570958095C0
:103B1000909530954095509521953F4F4F4F5F4F71
:103B20006F4F7F4F8F4F9F4F08950F93083090F046
:103B3000982F872F762F652F542F432F322F222730
:103B40000850F4CF220F331F441F551F661F771FE5
:103B5000881F991F0A95B2F70F91089597FB10F8E7
:103B6000169400080F93083098F00850232F342F34
:103B7000452F562F672F782F892F902DF4CF05943E
:103B80009795879577956795579547953795279595
:103B90000A95AAF70F9108952A0D3B1D4C1D5D1D36
:103BA0006E1D7F1D801F911F08952A193B094C0926
:103BB0005D096E097F09800B910B08950024A7FD14
:103BC00000942A17300540055005600570058005F2
:103BD00090050895EE0FFF1F0590F491E02D0994D4
:103BE0000F931F93CF93DF938230910510F482E0FF
:103BF00090E0E091C503F091C60320E030E0A0E042
:103C0000B0E0309719F1408151810281138148174A
:103C10005907C8F08417950769F4109731F0129688
:103C20000C93129713961C9327C00093C50310930F
:103C3000C60322C02115310519F04217530718F4A5
:103C40009A01BD01EF01DF01F801DBCF211531053C
:103C5000F9F0281B390B2430310580F48A819B81CF
:103C60006115710521F0FB019383828304C0909359
:103C7000C6038093C503FE01329644C0FE01E20FE5
:103C8000F31F8193919322503109398328833AC0DD
:103C90002091C3033091C403232B41F420910601EA
:103CA000309107013093C4032093C3032091040192
:103CB000309105012115310541F42DB73EB74091F2
:103CC000080150910901241B350BE091C303F091C9
:103CD000C403E217F307A0F42E1B3F0B2817390784
:103CE00078F0AC014E5F5F4F2417350748F04E0F58
:103CF0005F1F5093C4034093C3038193919302C009
:103D0000E0E0F0E0CF01DF91CF911F910F91089596
:103D1000CF93DF93009709F481C0FC01329713829F
:103D20001282A091C503B091C603109781F420813F
:103D30003181820F931F2091C3033091C403281750
:103D4000390751F5F093C403E093C30367C0ED0155
:103D500020E030E0CE17DF0740F44A815B819E010E
:103D600041155105F1F0EA01F5CFD383C2834081BB
:103D70005181840F951FC817D90759F488819981FB
:103D8000840F951F0296918380838A819B81938300
:103D900082832115310529F4F093C603E093C5030E
:103DA0003DC0E901FB83EA8349915991C40FD51FB6
:103DB000EC17FD0761F480819181840F951F0296B5
:103DC000E90199838883828193819B838A83E0E0E0
:103DD000F0E012968D919C911397009719F0FD01D8
:103DE000DC01F7CF8D919C9111979D012E5F3F4F84
:103DF000820F931F2091C3033091C4032817390702
:103E000069F4309729F41092C6031092C50302C0DA
:103E100013821282B093C403A093C303DF91CF91A6
:103E20000895A0E0B0E0E7E1FFE10C94591AEC013D
:103E3000009721F4CB010E94F01DB4C0FC01E60FF5
:103E4000F71F9C0122503109E217F30708F4A8C0BC
:103E5000D9010D911C91119706171707B0F0053085
:103E6000110508F49BC0C80104978617970708F44A
:103E700095C002501109061B170B019311936D9306
:103E80007C93CF010E94881E89C05B01A01AB10AF1
:103E90004C01800E911EA091C503B091C603612C08
:103EA000712CE12CF12C109709F446C08D919C9156
:103EB0001197A815B905B1F56C0142E0C40ED11CEB
:103EC000CA14DB0478F14C018A189B08640142E0B3
:103ED000C40ED11C1296BC9012971396AC91B5E00B
:103EE000CB16D10440F0B282A38391828082D901A3
:103EF0006D937C9309C00E5F1F4F800F911FF901D6
:103F000091838083EB2DFA2FE114F10431F0D70176
:103F10001396FC93EE93129741C0F093C603E0937F
:103F2000C5033CC06816790608F43C017D01129671
:103F30000D90BC91A02DB7CF8091C3039091C40385
:103F400088169906E1F466167706C8F48091040194
:103F500090910501009741F48DB79EB740910801FB
:103F600050910901841B950BE817F907C8F4F093E9
:103F7000C403E093C303F901718360830FC0CB01D5
:103F80000E94F01D7C01009759F0A801BE010E941B
:103F9000DC1FCE010E94881EC70104C0CE0102C0F2
:103FA00080E090E0CDB7DEB7EEE00C94751A81E0CA
:103FB00090E0F8940C94EC1FFB01DC0102C001902E
:103FC0000D9241505040D8F70895FB01DC0101905B
:0C3FD0000D920020E1F70895F894FFCF57
:103FDC008C008C000000C70380000040145400408B
:103FEC0010500000000020018D00B7006D01E800AA
:103FFC00C600DA00000000002602F9017702CD01AC
:10400C00F101DD01CE0100000000180500000000E8
:10401C00B302000000001A0500000000201100008F
:10402C0000002E070000000069028D007702760266
:10403C00F10A550299027A026E616E00696E660091
:10404C006F7666003A20000D0A00436F756C642091
:10405C006E6F742066696E6420612076616C696491
:10406C0020424D503238302073656E736F722C20A5
:10407C00636865636B20776972696E6721005445CC
:10408C004D504552415455524500C2B0430048452D
:10409C00415420494E4445580050524553535552B3
:1040AC0045006850610048554D4944495459002514
:0240BC00000002
:107E0000112484B714BE81FFF0D085E080938100F7
:107E100082E08093C00088E18093C10086E0809377
:107E2000C20080E18093C4008EE0C9D0259A86E02C
:107E300020E33CEF91E0309385002093840096BBD3
:107E4000B09BFECF1D9AA8958150A9F7CC24DD24C4
:107E500088248394B5E0AB2EA1E19A2EF3E0BF2EE7
:107E6000A2D0813461F49FD0082FAFD0023811F036
:107E7000013811F484E001C083E08DD089C08234E0
:107E800011F484E103C0853419F485E0A6D080C0E4
:107E9000853579F488D0E82EFF2485D0082F10E0AE
:107EA000102F00270E291F29000F111F8ED06801E7
:107EB0006FC0863521F484E090D080E0DECF843638
:107EC00009F040C070D06FD0082F6DD080E0C81688
:107ED00080E7D80618F4F601B7BEE895C0E0D1E017
:107EE00062D089930C17E1F7F0E0CF16F0E7DF06D8
:107EF00018F0F601B7BEE89568D007B600FCFDCFD4
:107F0000A601A0E0B1E02C9130E011968C91119780
:107F100090E0982F8827822B932B1296FA010C0160
:107F200087BEE89511244E5F5F4FF1E0A038BF0790
:107F300051F7F601A7BEE89507B600FCFDCF97BE46
:107F4000E89526C08437B1F42ED02DD0F82E2BD052
:107F50003CD0F601EF2C8F010F5F1F4F84911BD097
:107F6000EA94F801C1F70894C11CD11CFA94CF0C13
:107F7000D11C0EC0853739F428D08EE10CD085E9AC
:107F80000AD08FE07ACF813511F488E018D01DD067
:107F900080E101D065CF982F8091C00085FFFCCF94
:107FA0009093C60008958091C00087FFFCCF809118
:107FB000C00084FD01C0A8958091C6000895E0E648
:107FC000F0E098E1908380830895EDDF803219F02E
:107FD00088E0F5DFFFCF84E1DECF1F93182FE3DFCA
:107FE0001150E9F7F2DF1F91089580E0E8DFEE27F6
:047FF000FF270994CA
:027FFE00040479
:0400000300007E007B
:00000001FF
